{
  "contractName": "Picolo",
  "abi": [
    {
      "constant": true,
      "inputs": [],
      "name": "totalPayments",
      "outputs": [
        {
          "name": "",
          "type": "uint256"
        }
      ],
      "payable": false,
      "stateMutability": "view",
      "type": "function"
    },
    {
      "constant": true,
      "inputs": [],
      "name": "name",
      "outputs": [
        {
          "name": "",
          "type": "string"
        }
      ],
      "payable": false,
      "stateMutability": "view",
      "type": "function"
    },
    {
      "constant": false,
      "inputs": [
        {
          "name": "_spender",
          "type": "address"
        },
        {
          "name": "_value",
          "type": "uint256"
        }
      ],
      "name": "approve",
      "outputs": [
        {
          "name": "success",
          "type": "bool"
        }
      ],
      "payable": false,
      "stateMutability": "nonpayable",
      "type": "function"
    },
    {
      "constant": true,
      "inputs": [],
      "name": "totalSupply",
      "outputs": [
        {
          "name": "",
          "type": "uint256"
        }
      ],
      "payable": false,
      "stateMutability": "view",
      "type": "function"
    },
    {
      "constant": false,
      "inputs": [
        {
          "name": "_from",
          "type": "address"
        },
        {
          "name": "_to",
          "type": "address"
        },
        {
          "name": "_value",
          "type": "uint256"
        }
      ],
      "name": "transferFrom",
      "outputs": [
        {
          "name": "success",
          "type": "bool"
        }
      ],
      "payable": false,
      "stateMutability": "nonpayable",
      "type": "function"
    },
    {
      "constant": true,
      "inputs": [],
      "name": "decimals",
      "outputs": [
        {
          "name": "",
          "type": "uint256"
        }
      ],
      "payable": false,
      "stateMutability": "view",
      "type": "function"
    },
    {
      "constant": true,
      "inputs": [
        {
          "name": "",
          "type": "address"
        }
      ],
      "name": "registeredNodesStake",
      "outputs": [
        {
          "name": "",
          "type": "uint256"
        }
      ],
      "payable": false,
      "stateMutability": "view",
      "type": "function"
    },
    {
      "constant": true,
      "inputs": [
        {
          "name": "",
          "type": "address"
        }
      ],
      "name": "maliciousVoteTally",
      "outputs": [
        {
          "name": "",
          "type": "uint256"
        }
      ],
      "payable": false,
      "stateMutability": "view",
      "type": "function"
    },
    {
      "constant": true,
      "inputs": [],
      "name": "version",
      "outputs": [
        {
          "name": "",
          "type": "string"
        }
      ],
      "payable": false,
      "stateMutability": "view",
      "type": "function"
    },
    {
      "constant": true,
      "inputs": [
        {
          "name": "",
          "type": "address"
        }
      ],
      "name": "nodeStatus",
      "outputs": [
        {
          "name": "",
          "type": "string"
        }
      ],
      "payable": false,
      "stateMutability": "view",
      "type": "function"
    },
    {
      "constant": true,
      "inputs": [],
      "name": "entryStake",
      "outputs": [
        {
          "name": "",
          "type": "uint256"
        }
      ],
      "payable": false,
      "stateMutability": "view",
      "type": "function"
    },
    {
      "constant": true,
      "inputs": [
        {
          "name": "_owner",
          "type": "address"
        }
      ],
      "name": "balanceOf",
      "outputs": [
        {
          "name": "balance",
          "type": "uint256"
        }
      ],
      "payable": false,
      "stateMutability": "view",
      "type": "function"
    },
    {
      "constant": true,
      "inputs": [],
      "name": "owner",
      "outputs": [
        {
          "name": "",
          "type": "address"
        }
      ],
      "payable": false,
      "stateMutability": "view",
      "type": "function"
    },
    {
      "constant": true,
      "inputs": [],
      "name": "symbol",
      "outputs": [
        {
          "name": "",
          "type": "string"
        }
      ],
      "payable": false,
      "stateMutability": "view",
      "type": "function"
    },
    {
      "constant": true,
      "inputs": [],
      "name": "convictThreshold",
      "outputs": [
        {
          "name": "",
          "type": "uint256"
        }
      ],
      "payable": false,
      "stateMutability": "view",
      "type": "function"
    },
    {
      "constant": false,
      "inputs": [
        {
          "name": "_to",
          "type": "address"
        },
        {
          "name": "_value",
          "type": "uint256"
        }
      ],
      "name": "transfer",
      "outputs": [
        {
          "name": "success",
          "type": "bool"
        }
      ],
      "payable": false,
      "stateMutability": "nonpayable",
      "type": "function"
    },
    {
      "constant": true,
      "inputs": [
        {
          "name": "",
          "type": "address"
        }
      ],
      "name": "voteTally",
      "outputs": [
        {
          "name": "",
          "type": "uint256"
        }
      ],
      "payable": false,
      "stateMutability": "view",
      "type": "function"
    },
    {
      "constant": true,
      "inputs": [
        {
          "name": "_owner",
          "type": "address"
        },
        {
          "name": "_spender",
          "type": "address"
        }
      ],
      "name": "allowance",
      "outputs": [
        {
          "name": "remaining",
          "type": "uint256"
        }
      ],
      "payable": false,
      "stateMutability": "view",
      "type": "function"
    },
    {
      "constant": false,
      "inputs": [
        {
          "name": "newOwner",
          "type": "address"
        }
      ],
      "name": "transferOwnership",
      "outputs": [],
      "payable": false,
      "stateMutability": "nonpayable",
      "type": "function"
    },
    {
      "constant": true,
      "inputs": [
        {
          "name": "",
          "type": "address"
        }
      ],
      "name": "validators",
      "outputs": [
        {
          "name": "",
          "type": "bool"
        }
      ],
      "payable": false,
      "stateMutability": "view",
      "type": "function"
    },
    {
      "inputs": [],
      "payable": false,
      "stateMutability": "nonpayable",
      "type": "constructor"
    },
    {
      "anonymous": false,
      "inputs": [
        {
          "indexed": true,
          "name": "statusCode",
          "type": "string"
        }
      ],
      "name": "Status",
      "type": "event"
    },
    {
      "anonymous": false,
      "inputs": [
        {
          "indexed": true,
          "name": "newStatus",
          "type": "string"
        },
        {
          "indexed": true,
          "name": "sender",
          "type": "address"
        }
      ],
      "name": "nodeStatusChangeEvent",
      "type": "event"
    },
    {
      "anonymous": false,
      "inputs": [
        {
          "indexed": true,
          "name": "_from",
          "type": "address"
        },
        {
          "indexed": true,
          "name": "_to",
          "type": "address"
        },
        {
          "indexed": false,
          "name": "_value",
          "type": "uint256"
        }
      ],
      "name": "Transfer",
      "type": "event"
    },
    {
      "anonymous": false,
      "inputs": [
        {
          "indexed": true,
          "name": "_owner",
          "type": "address"
        },
        {
          "indexed": true,
          "name": "_spender",
          "type": "address"
        },
        {
          "indexed": false,
          "name": "_value",
          "type": "uint256"
        }
      ],
      "name": "Approval",
      "type": "event"
    },
    {
      "anonymous": false,
      "inputs": [
        {
          "indexed": true,
          "name": "previousOwner",
          "type": "address"
        },
        {
          "indexed": true,
          "name": "newOwner",
          "type": "address"
        }
      ],
      "name": "OwnershipTransferred",
      "type": "event"
    },
    {
      "constant": false,
      "inputs": [],
      "name": "register",
      "outputs": [],
      "payable": true,
      "stateMutability": "payable",
      "type": "function"
    },
    {
      "constant": false,
      "inputs": [],
      "name": "start",
      "outputs": [],
      "payable": false,
      "stateMutability": "nonpayable",
      "type": "function"
    },
    {
      "constant": false,
      "inputs": [],
      "name": "stop",
      "outputs": [],
      "payable": false,
      "stateMutability": "nonpayable",
      "type": "function"
    },
    {
      "constant": false,
      "inputs": [],
      "name": "unregister",
      "outputs": [],
      "payable": false,
      "stateMutability": "nonpayable",
      "type": "function"
    },
    {
      "constant": false,
      "inputs": [
        {
          "name": "payment",
          "type": "uint256"
        }
      ],
      "name": "claimMiningRewards",
      "outputs": [],
      "payable": false,
      "stateMutability": "nonpayable",
      "type": "function"
    },
    {
      "constant": false,
      "inputs": [
        {
          "name": "_price",
          "type": "uint256"
        }
      ],
      "name": "changeEntryStake",
      "outputs": [],
      "payable": false,
      "stateMutability": "nonpayable",
      "type": "function"
    },
    {
      "constant": false,
      "inputs": [
        {
          "name": "_target",
          "type": "address"
        }
      ],
      "name": "addPotentialMalicious",
      "outputs": [],
      "payable": false,
      "stateMutability": "nonpayable",
      "type": "function"
    },
    {
      "constant": false,
      "inputs": [
        {
          "name": "_target",
          "type": "address"
        },
        {
          "name": "_convict",
          "type": "bool"
        }
      ],
      "name": "voteMalicious",
      "outputs": [],
      "payable": false,
      "stateMutability": "nonpayable",
      "type": "function"
    }
  ],
  "bytecode": "0x60606040526040805190810160405280600381526020017f312e3000000000000000000000000000000000000000000000000000000000008152506004908051906020019062000051929190620000c6565b50678ac7230489e80000600555600360095534156200006f57600080fd5b336000806101000a81548173ffffffffffffffffffffffffffffffffffffffff021916908373ffffffffffffffffffffffffffffffffffffffff1602179055506012600a0a633b9aca000260018190555062000175565b828054600181600116156101000203166002900490600052602060002090601f016020900481019282601f106200010957805160ff19168380011785556200013a565b828001600101855582156200013a579182015b82811115620001395782518255916020019190600101906200011c565b5b5090506200014991906200014d565b5090565b6200017291905b808211156200016e57600081600090555060010162000154565b5090565b90565b61241b80620001856000396000f300606060405260043610610169576000357c0100000000000000000000000000000000000000000000000000000000900463ffffffff1680625b44871461016e57806306fdde031461019757806307da68f514610225578063095ea7b31461023a57806318160ddd146102945780631aa3a008146102bd57806323b872dd146102c75780632b08012714610340578063313ce5671461036357806342b276db1461038c578063483fcd2f146103d95780634b3280de1461042657806350f70af91461046a57806354fd4d501461048d5780635e1cd7f31461051b5780636de0336c146105cd57806370a08231146105f65780638c36b0d4146106435780638da5cb5b1461067c57806395d89b41146106d15780639f39207e1461075f578063a9059cbb14610788578063b72d43e2146107e2578063be9a65551461082f578063dd62ed3e14610844578063e79a198f146108b0578063f2fde38b146108c5578063fa52c7d8146108fe575b600080fd5b341561017957600080fd5b61018161094f565b6040518082815260200191505060405180910390f35b34156101a257600080fd5b6101aa610955565b6040518080602001828103825283818151815260200191508051906020019080838360005b838110156101ea5780820151818401526020810190506101cf565b50505050905090810190601f1680156102175780820380516001836020036101000a031916815260200191505b509250505060405180910390f35b341561023057600080fd5b61023861098e565b005b341561024557600080fd5b61027a600480803573ffffffffffffffffffffffffffffffffffffffff16906020019091908035906020019091905050610b83565b604051808215151515815260200191505060405180910390f35b341561029f57600080fd5b6102a7610c75565b6040518082815260200191505060405180910390f35b6102c5610c7b565b005b34156102d257600080fd5b610326600480803573ffffffffffffffffffffffffffffffffffffffff1690602001909190803573ffffffffffffffffffffffffffffffffffffffff16906020019091908035906020019091905050610ea3565b604051808215151515815260200191505060405180910390f35b341561034b57600080fd5b610361600480803590602001909190505061111f565b005b341561036e57600080fd5b610376611184565b6040518082815260200191505060405180910390f35b341561039757600080fd5b6103c3600480803573ffffffffffffffffffffffffffffffffffffffff16906020019091905050611189565b6040518082815260200191505060405180910390f35b34156103e457600080fd5b610410600480803573ffffffffffffffffffffffffffffffffffffffff169060200190919050506111a1565b6040518082815260200191505060405180910390f35b341561043157600080fd5b610468600480803573ffffffffffffffffffffffffffffffffffffffff1690602001909190803515159060200190919050506111b9565b005b341561047557600080fd5b61048b60048080359060200190919050506115b1565b005b341561049857600080fd5b6104a0611638565b6040518080602001828103825283818151815260200191508051906020019080838360005b838110156104e05780820151818401526020810190506104c5565b50505050905090810190601f16801561050d5780820380516001836020036101000a031916815260200191505b509250505060405180910390f35b341561052657600080fd5b610552600480803573ffffffffffffffffffffffffffffffffffffffff169060200190919050506116d6565b6040518080602001828103825283818151815260200191508051906020019080838360005b83811015610592578082015181840152602081019050610577565b50505050905090810190601f1680156105bf5780820380516001836020036101000a031916815260200191505b509250505060405180910390f35b34156105d857600080fd5b6105e0611786565b6040518082815260200191505060405180910390f35b341561060157600080fd5b61062d600480803573ffffffffffffffffffffffffffffffffffffffff1690602001909190505061178c565b6040518082815260200191505060405180910390f35b341561064e57600080fd5b61067a600480803573ffffffffffffffffffffffffffffffffffffffff169060200190919050506117d5565b005b341561068757600080fd5b61068f611953565b604051808273ffffffffffffffffffffffffffffffffffffffff1673ffffffffffffffffffffffffffffffffffffffff16815260200191505060405180910390f35b34156106dc57600080fd5b6106e4611978565b6040518080602001828103825283818151815260200191508051906020019080838360005b83811015610724578082015181840152602081019050610709565b50505050905090810190601f1680156107515780820380516001836020036101000a031916815260200191505b509250505060405180910390f35b341561076a57600080fd5b6107726119b1565b6040518082815260200191505060405180910390f35b341561079357600080fd5b6107c8600480803573ffffffffffffffffffffffffffffffffffffffff169060200190919080359060200190919050506119b7565b604051808215151515815260200191505060405180910390f35b34156107ed57600080fd5b610819600480803573ffffffffffffffffffffffffffffffffffffffff16906020019091905050611b20565b6040518082815260200191505060405180910390f35b341561083a57600080fd5b610842611b38565b005b341561084f57600080fd5b61089a600480803573ffffffffffffffffffffffffffffffffffffffff1690602001909190803573ffffffffffffffffffffffffffffffffffffffff16906020019091905050611d2d565b6040518082815260200191505060405180910390f35b34156108bb57600080fd5b6108c3611db4565b005b34156108d057600080fd5b6108fc600480803573ffffffffffffffffffffffffffffffffffffffff1690602001909190505061217c565b005b341561090957600080fd5b610935600480803573ffffffffffffffffffffffffffffffffffffffff169060200190919050506122d1565b604051808215151515815260200191505060405180910390f35b60085481565b6040805190810160405280600c81526020017f5069636f6c6f20546f6b656e000000000000000000000000000000000000000081525081565b60405180807f61637469766500000000000000000000000000000000000000000000000000008152506006019050604051809103902060001916600760003373ffffffffffffffffffffffffffffffffffffffff1673ffffffffffffffffffffffffffffffffffffffff1681526020019081526020016000206040518082805460018160011615610100020316600290048015610a625780601f10610a40576101008083540402835291820191610a62565b820191906000526020600020905b815481529060010190602001808311610a4e575b5050915050604051809103902060001916141515610a7f57600080fd5b6040805190810160405280600881526020017f696e616374697665000000000000000000000000000000000000000000000000815250600760003373ffffffffffffffffffffffffffffffffffffffff1673ffffffffffffffffffffffffffffffffffffffff1681526020019081526020016000209080519060200190610b0792919061234a565b503373ffffffffffffffffffffffffffffffffffffffff1660405180807f696e616374697665000000000000000000000000000000000000000000000000815250600801905060405180910390207f295fe13a5847f1e1b369c5842cc581851172a4d741d8ed3076e8cdf55f97b06760405160405180910390a3565b600081600360003373ffffffffffffffffffffffffffffffffffffffff1673ffffffffffffffffffffffffffffffffffffffff16815260200190815260200160002060008573ffffffffffffffffffffffffffffffffffffffff1673ffffffffffffffffffffffffffffffffffffffff168152602001908152602001600020819055508273ffffffffffffffffffffffffffffffffffffffff163373ffffffffffffffffffffffffffffffffffffffff167f8c5be1e5ebec7d5bd14f71427d1e84f3dd0314c0f7b2291e5b200ac8c7c3b925846040518082815260200191505060405180910390a36001905092915050565b60015481565b6005548034141515610c8c57600080fd5b604051806000019050604051809103902060001916600760003373ffffffffffffffffffffffffffffffffffffffff1673ffffffffffffffffffffffffffffffffffffffff1681526020019081526020016000206040518082805460018160011615610100020316600290048015610d3b5780601f10610d19576101008083540402835291820191610d3b565b820191906000526020600020905b815481529060010190602001808311610d27575b5050915050604051809103902060001916141515610d5857600080fd5b6040805190810160405280600881526020017f696e616374697665000000000000000000000000000000000000000000000000815250600760003373ffffffffffffffffffffffffffffffffffffffff1673ffffffffffffffffffffffffffffffffffffffff1681526020019081526020016000209080519060200190610de092919061234a565b50600554600660003373ffffffffffffffffffffffffffffffffffffffff1673ffffffffffffffffffffffffffffffffffffffff168152602001908152602001600020819055503373ffffffffffffffffffffffffffffffffffffffff1660405180807f696e616374697665000000000000000000000000000000000000000000000000815250600801905060405180910390207f295fe13a5847f1e1b369c5842cc581851172a4d741d8ed3076e8cdf55f97b06760405160405180910390a350565b600081600260008673ffffffffffffffffffffffffffffffffffffffff1673ffffffffffffffffffffffffffffffffffffffff1681526020019081526020016000205410158015610f70575081600360008673ffffffffffffffffffffffffffffffffffffffff1673ffffffffffffffffffffffffffffffffffffffff16815260200190815260200160002060003373ffffffffffffffffffffffffffffffffffffffff1673ffffffffffffffffffffffffffffffffffffffff1681526020019081526020016000205410155b8015610f7c5750600082115b156111135781600260008573ffffffffffffffffffffffffffffffffffffffff1673ffffffffffffffffffffffffffffffffffffffff1681526020019081526020016000206000828254019250508190555081600260008673ffffffffffffffffffffffffffffffffffffffff1673ffffffffffffffffffffffffffffffffffffffff1681526020019081526020016000206000828254039250508190555081600360008673ffffffffffffffffffffffffffffffffffffffff1673ffffffffffffffffffffffffffffffffffffffff16815260200190815260200160002060003373ffffffffffffffffffffffffffffffffffffffff1673ffffffffffffffffffffffffffffffffffffffff168152602001908152602001600020600082825403925050819055508273ffffffffffffffffffffffffffffffffffffffff168473ffffffffffffffffffffffffffffffffffffffff167fddf252ad1be2c89b69c2b068fc378daa952ba7f163c4a11628f55a4df523b3ef846040518082815260200191505060405180910390a360019050611118565b600090505b9392505050565b6000809054906101000a900473ffffffffffffffffffffffffffffffffffffffff1673ffffffffffffffffffffffffffffffffffffffff163373ffffffffffffffffffffffffffffffffffffffff1614151561117a57600080fd5b8060058190555050565b601281565b60066020528060005260406000206000915090505481565b600b6020528060005260406000206000915090505481565b600c60003373ffffffffffffffffffffffffffffffffffffffff1673ffffffffffffffffffffffffffffffffffffffff16815260200190815260200160002060009054906101000a900460ff16151561121157600080fd5b60405180807f70656e64696e67000000000000000000000000000000000000000000000000008152506007019050604051809103902060001916600760008473ffffffffffffffffffffffffffffffffffffffff1673ffffffffffffffffffffffffffffffffffffffff16815260200190815260200160002060405180828054600181600116156101000203166002900480156112e55780601f106112c35761010080835404028352918201916112e5565b820191906000526020600020905b8154815290600101906020018083116112d1575b505091505060405180910390206000191614151561130257600080fd5b6113556001600a60008573ffffffffffffffffffffffffffffffffffffffff1673ffffffffffffffffffffffffffffffffffffffff168152602001908152602001600020546122f190919063ffffffff16565b5080156113b1576113af6001600b60008573ffffffffffffffffffffffffffffffffffffffff1673ffffffffffffffffffffffffffffffffffffffff168152602001908152602001600020546122f190919063ffffffff16565b505b600954600a60008473ffffffffffffffffffffffffffffffffffffffff1673ffffffffffffffffffffffffffffffffffffffff16815260200190815260200160002054101580156114a55750600a60008373ffffffffffffffffffffffffffffffffffffffff1673ffffffffffffffffffffffffffffffffffffffff168152602001908152602001600020546114a360016114956002600b60008873ffffffffffffffffffffffffffffffffffffffff1673ffffffffffffffffffffffffffffffffffffffff1681526020019081526020016000205461230f90919063ffffffff16565b6122f190919063ffffffff16565b115b156115ad576040805190810160405280600981526020017f6d616c6963696f75730000000000000000000000000000000000000000000000815250600760008473ffffffffffffffffffffffffffffffffffffffff1673ffffffffffffffffffffffffffffffffffffffff168152602001908152602001600020908051906020019061153292919061234a565b503373ffffffffffffffffffffffffffffffffffffffff1660405180807f6d616c6963696f75730000000000000000000000000000000000000000000000815250600901905060405180910390207f295fe13a5847f1e1b369c5842cc581851172a4d741d8ed3076e8cdf55f97b06760405160405180910390a35b5050565b6000339050600082141515156115c657600080fd5b61161882600260008473ffffffffffffffffffffffffffffffffffffffff1673ffffffffffffffffffffffffffffffffffffffff168152602001908152602001600020546122f190919063ffffffff16565b5061162e826008546122f190919063ffffffff16565b6008819055505050565b60048054600181600116156101000203166002900480601f0160208091040260200160405190810160405280929190818152602001828054600181600116156101000203166002900480156116ce5780601f106116a3576101008083540402835291602001916116ce565b820191906000526020600020905b8154815290600101906020018083116116b157829003601f168201915b505050505081565b60076020528060005260406000206000915090508054600181600116156101000203166002900480601f01602080910402602001604051908101604052809291908181526020018280546001816001161561010002031660029004801561177e5780601f106117535761010080835404028352916020019161177e565b820191906000526020600020905b81548152906001019060200180831161176157829003601f168201915b505050505081565b60055481565b6000600260008373ffffffffffffffffffffffffffffffffffffffff1673ffffffffffffffffffffffffffffffffffffffff168152602001908152602001600020549050919050565b60405180807f6d616c6963696f757300000000000000000000000000000000000000000000008152506009019050604051809103902060001916600760008373ffffffffffffffffffffffffffffffffffffffff1673ffffffffffffffffffffffffffffffffffffffff16815260200190815260200160002060405180828054600181600116156101000203166002900480156118a95780601f106118875761010080835404028352918201916118a9565b820191906000526020600020905b815481529060010190602001808311611895575b5050915050604051809103902060001916141515156118c757600080fd5b6040805190810160405280600781526020017f70656e64696e6700000000000000000000000000000000000000000000000000815250600760008373ffffffffffffffffffffffffffffffffffffffff1673ffffffffffffffffffffffffffffffffffffffff168152602001908152602001600020908051906020019061194f92919061234a565b5050565b6000809054906101000a900473ffffffffffffffffffffffffffffffffffffffff1681565b6040805190810160405280600381526020017f504943000000000000000000000000000000000000000000000000000000000081525081565b60095481565b600081600260003373ffffffffffffffffffffffffffffffffffffffff1673ffffffffffffffffffffffffffffffffffffffff1681526020019081526020016000205410158015611a085750600082115b15611b155781600260003373ffffffffffffffffffffffffffffffffffffffff1673ffffffffffffffffffffffffffffffffffffffff1681526020019081526020016000206000828254039250508190555081600260008573ffffffffffffffffffffffffffffffffffffffff1673ffffffffffffffffffffffffffffffffffffffff168152602001908152602001600020600082825401925050819055508273ffffffffffffffffffffffffffffffffffffffff163373ffffffffffffffffffffffffffffffffffffffff167fddf252ad1be2c89b69c2b068fc378daa952ba7f163c4a11628f55a4df523b3ef846040518082815260200191505060405180910390a360019050611b1a565b600090505b92915050565b600a6020528060005260406000206000915090505481565b60405180807f696e6163746976650000000000000000000000000000000000000000000000008152506008019050604051809103902060001916600760003373ffffffffffffffffffffffffffffffffffffffff1673ffffffffffffffffffffffffffffffffffffffff1681526020019081526020016000206040518082805460018160011615610100020316600290048015611c0c5780601f10611bea576101008083540402835291820191611c0c565b820191906000526020600020905b815481529060010190602001808311611bf8575b5050915050604051809103902060001916141515611c2957600080fd5b6040805190810160405280600681526020017f6163746976650000000000000000000000000000000000000000000000000000815250600760003373ffffffffffffffffffffffffffffffffffffffff1673ffffffffffffffffffffffffffffffffffffffff1681526020019081526020016000209080519060200190611cb192919061234a565b503373ffffffffffffffffffffffffffffffffffffffff1660405180807f6163746976650000000000000000000000000000000000000000000000000000815250600601905060405180910390207f295fe13a5847f1e1b369c5842cc581851172a4d741d8ed3076e8cdf55f97b06760405160405180910390a3565b6000600360008473ffffffffffffffffffffffffffffffffffffffff1673ffffffffffffffffffffffffffffffffffffffff16815260200190815260200160002060008373ffffffffffffffffffffffffffffffffffffffff1673ffffffffffffffffffffffffffffffffffffffff16815260200190815260200160002054905092915050565b60008033915060405180807f6d616c6963696f757300000000000000000000000000000000000000000000008152506009019050604051809103902060001916600760008473ffffffffffffffffffffffffffffffffffffffff1673ffffffffffffffffffffffffffffffffffffffff1681526020019081526020016000206040518082805460018160011615610100020316600290048015611e8e5780601f10611e6c576101008083540402835291820191611e8e565b820191906000526020600020905b815481529060010190602001808311611e7a575b505091505060405180910390206000191614151515611eac57600080fd5b60405180807f70656e64696e67000000000000000000000000000000000000000000000000008152506007019050604051809103902060001916600760008473ffffffffffffffffffffffffffffffffffffffff1673ffffffffffffffffffffffffffffffffffffffff1681526020019081526020016000206040518082805460018160011615610100020316600290048015611f805780601f10611f5e576101008083540402835291820191611f80565b820191906000526020600020905b815481529060010190602001808311611f6c575b505091505060405180910390206000191614151515611f9e57600080fd5b60008114151515611fae57600080fd5b803073ffffffffffffffffffffffffffffffffffffffff163110151515611fd457600080fd5b600660008373ffffffffffffffffffffffffffffffffffffffff1673ffffffffffffffffffffffffffffffffffffffff1681526020019081526020016000205490506000600660008473ffffffffffffffffffffffffffffffffffffffff1673ffffffffffffffffffffffffffffffffffffffff168152602001908152602001600020819055506020604051908101604052806000815250600760008473ffffffffffffffffffffffffffffffffffffffff1673ffffffffffffffffffffffffffffffffffffffff16815260200190815260200160002090805190602001906120be92919061234a565b508173ffffffffffffffffffffffffffffffffffffffff166108fc829081150290604051600060405180830381858888f1935050505015156120ff57600080fd5b3373ffffffffffffffffffffffffffffffffffffffff1660405180807f756e726567697374657265640000000000000000000000000000000000000000815250600c01905060405180910390207f295fe13a5847f1e1b369c5842cc581851172a4d741d8ed3076e8cdf55f97b06760405160405180910390a35050565b6000809054906101000a900473ffffffffffffffffffffffffffffffffffffffff1673ffffffffffffffffffffffffffffffffffffffff163373ffffffffffffffffffffffffffffffffffffffff161415156121d757600080fd5b600073ffffffffffffffffffffffffffffffffffffffff168173ffffffffffffffffffffffffffffffffffffffff161415151561221357600080fd5b8073ffffffffffffffffffffffffffffffffffffffff166000809054906101000a900473ffffffffffffffffffffffffffffffffffffffff1673ffffffffffffffffffffffffffffffffffffffff167f8be0079c531659141344cd1fd0a4f28419497f9722a3daafe3b4186f6b6457e060405160405180910390a3806000806101000a81548173ffffffffffffffffffffffffffffffffffffffff021916908373ffffffffffffffffffffffffffffffffffffffff16021790555050565b600c6020528060005260406000206000915054906101000a900460ff1681565b600080828401905083811015151561230557fe5b8091505092915050565b60008060008414156123245760009150612343565b828402905082848281151561233557fe5b0414151561233f57fe5b8091505b5092915050565b828054600181600116156101000203166002900490600052602060002090601f016020900481019282601f1061238b57805160ff19168380011785556123b9565b828001600101855582156123b9579182015b828111156123b857825182559160200191906001019061239d565b5b5090506123c691906123ca565b5090565b6123ec91905b808211156123e85760008160009055506001016123d0565b5090565b905600a165627a7a723058208df10f6dda5808b01eeb4b66cd24de639695ae29fcd039c6faa2a5d71c83f5190029",
  "source": "pragma solidity ^0.4.2;\n\nimport \"./Ownable.sol\";\nimport \"./SafeMath.sol\";\nimport \"./StandardToken.sol\";\n\ncontract Picolo is Ownable, StandardToken {\n\n  \tusing SafeMath for uint256;\n\n    // metadata\n    string public constant name = \"Picolo Token\";\n    string public constant symbol = \"PIC\";\n    uint256 public constant decimals = 18;\n    string public version = \"1.0\";\n\n   \tuint public entryStake = 10 ether;  // amount of eth required for staking\n   \tmapping(address => uint) public registeredNodesStake;\n   \tmapping(address => string) public nodeStatus;\n    uint256 public totalPayments;\n\n   \tuint public convictThreshold = 3;\n   \tmapping(address => uint) public voteTally;\n   \tmapping(address => uint) public maliciousVoteTally;\n   \tmapping(address => bool) public validators;\n\n    function Picolo() public {\n      totalSupply = 1 * (10**9) * 10**decimals;\n    }\n\n    // Status of transaction. Used for error handling.\n    event Status(string indexed statusCode);\n\n   \tevent nodeStatusChangeEvent (\n   \t\tstring indexed newStatus,\n   \t\taddress indexed sender\n   \t);\n\n    modifier costs(uint price) {\n        require(msg.value == price);\n        _;\n    }\n\n    modifier onlyValidators() {\n        require(validators[msg.sender]);\n        _;\n    }\n\n   \tfunction register() public payable costs(entryStake) {\n      require(keccak256(nodeStatus[msg.sender]) == keccak256(\"\"));\n      nodeStatus[msg.sender] = 'inactive';\n   \t\tregisteredNodesStake[msg.sender] = entryStake;\n      emit nodeStatusChangeEvent('inactive', msg.sender);\n  \t}\n\n   \tfunction start() public {\n \t\t  require(keccak256(nodeStatus[msg.sender]) == keccak256(\"inactive\"));\n \t   \tnodeStatus[msg.sender] = 'active';\n \t   \temit nodeStatusChangeEvent('active', msg.sender);\n   \t}\n\n   \tfunction stop() public {\n \t\t  require(keccak256(nodeStatus[msg.sender]) == keccak256(\"active\"));\n \t   \tnodeStatus[msg.sender] = 'inactive';\n \t   \temit nodeStatusChangeEvent('inactive', msg.sender);\n   \t}\n\n   \tfunction unregister() public {\n      address payee = msg.sender;\n   \t\trequire(keccak256(nodeStatus[payee]) != keccak256(\"malicious\"));\n   \t\trequire(keccak256(nodeStatus[payee]) != keccak256(\"pending\"));\n      require(payment != 0);\n      require(this.balance >= payment);\n\n      uint256 payment = registeredNodesStake[payee];\n      registeredNodesStake[payee] = 0;\n      nodeStatus[payee] = '';\n      payee.transfer(payment);\n \t   \temit nodeStatusChangeEvent('unregistered', msg.sender);\n   \t}\n\n    function claimMiningRewards(uint256 payment) public {\n      address payee = msg.sender;\n      require(payment != 0);\n      balances[payee].add(payment);\n      totalPayments = totalPayments.add(payment);\n    }\n\n   \tfunction changeEntryStake(uint _price) public onlyOwner {\n        entryStake = _price;\n    }\n\n    // Challenges\n    function addPotentialMalicious(address _target) public {\n    \trequire(keccak256(nodeStatus[_target]) != keccak256(\"malicious\"));\n   \t  nodeStatus[_target] = 'pending';\n    }\n\n    // Consensus\n    function voteMalicious(address _target, bool _convict) public onlyValidators {\n    \trequire(keccak256(nodeStatus[_target]) == keccak256(\"pending\"));\n    \tvoteTally[_target].add(1);\n    \tif (_convict) {\n    \t\tmaliciousVoteTally[_target].add(1);\n    \t}\n    \tif (voteTally[_target] >= convictThreshold\n    \t\t&& maliciousVoteTally[_target].mul(2).add(1) > voteTally[_target]) {\n    \t\tnodeStatus[_target] = 'malicious';\n   \t   \temit nodeStatusChangeEvent('malicious', msg.sender);\n    \t}\n    }\n    // todo: TCR for masternodes\n}\n",
  "sourcePath": "/Users/adi/work/projects/picolo-alpha/docker/truffle/contracts/Picolo.sol",
  "compiler": {
    "name": "solc",
    "version": "0.4.21+commit.dfe3193c.Emscripten.clang"
  },
  "schemaVersion": "2.0.0",
  "updatedAt": "2018-04-08T22:48:07.352Z"
}